{
  "_format": "hh-sol-artifact-1",
  "contractName": "Bets",
  "sourceName": "contracts/Bets.sol",
  "abi": [
    {
      "anonymous": false,
      "inputs": [
        {
          "indexed": true,
          "internalType": "address",
          "name": "previousOwner",
          "type": "address"
        },
        {
          "indexed": true,
          "internalType": "address",
          "name": "newOwner",
          "type": "address"
        }
      ],
      "name": "OwnershipTransferred",
      "type": "event"
    },
    {
      "inputs": [],
      "name": "BETTING_FEE",
      "outputs": [
        {
          "internalType": "uint256",
          "name": "",
          "type": "uint256"
        }
      ],
      "stateMutability": "view",
      "type": "function"
    },
    {
      "inputs": [],
      "name": "PLAYER_POOL",
      "outputs": [
        {
          "internalType": "uint256",
          "name": "",
          "type": "uint256"
        }
      ],
      "stateMutability": "view",
      "type": "function"
    },
    {
      "inputs": [
        {
          "internalType": "uint256",
          "name": "player",
          "type": "uint256"
        },
        {
          "internalType": "uint256",
          "name": "betNum",
          "type": "uint256"
        }
      ],
      "name": "bet",
      "outputs": [],
      "stateMutability": "payable",
      "type": "function"
    },
    {
      "inputs": [
        {
          "internalType": "uint256",
          "name": "",
          "type": "uint256"
        }
      ],
      "name": "betAggregator",
      "outputs": [
        {
          "internalType": "uint256",
          "name": "",
          "type": "uint256"
        }
      ],
      "stateMutability": "view",
      "type": "function"
    },
    {
      "inputs": [],
      "name": "bettingLive",
      "outputs": [
        {
          "internalType": "bool",
          "name": "",
          "type": "bool"
        }
      ],
      "stateMutability": "view",
      "type": "function"
    },
    {
      "inputs": [],
      "name": "claimWinnings",
      "outputs": [],
      "stateMutability": "nonpayable",
      "type": "function"
    },
    {
      "inputs": [
        {
          "internalType": "address",
          "name": "",
          "type": "address"
        }
      ],
      "name": "claimedStatus",
      "outputs": [
        {
          "internalType": "bool",
          "name": "",
          "type": "bool"
        }
      ],
      "stateMutability": "view",
      "type": "function"
    },
    {
      "inputs": [],
      "name": "owner",
      "outputs": [
        {
          "internalType": "address",
          "name": "",
          "type": "address"
        }
      ],
      "stateMutability": "view",
      "type": "function"
    },
    {
      "inputs": [],
      "name": "renounceOwnership",
      "outputs": [],
      "stateMutability": "nonpayable",
      "type": "function"
    },
    {
      "inputs": [],
      "name": "resetContract",
      "outputs": [],
      "stateMutability": "nonpayable",
      "type": "function"
    },
    {
      "inputs": [
        {
          "internalType": "uint256",
          "name": "_winner",
          "type": "uint256"
        }
      ],
      "name": "selectWinner",
      "outputs": [],
      "stateMutability": "nonpayable",
      "type": "function"
    },
    {
      "inputs": [],
      "name": "setBettingLive",
      "outputs": [],
      "stateMutability": "nonpayable",
      "type": "function"
    },
    {
      "inputs": [
        {
          "internalType": "address",
          "name": "newOwner",
          "type": "address"
        }
      ],
      "name": "transferOwnership",
      "outputs": [],
      "stateMutability": "nonpayable",
      "type": "function"
    },
    {
      "inputs": [
        {
          "internalType": "address",
          "name": "",
          "type": "address"
        },
        {
          "internalType": "uint256",
          "name": "",
          "type": "uint256"
        }
      ],
      "name": "userBets",
      "outputs": [
        {
          "internalType": "uint256",
          "name": "",
          "type": "uint256"
        }
      ],
      "stateMutability": "view",
      "type": "function"
    },
    {
      "inputs": [],
      "name": "winner",
      "outputs": [
        {
          "internalType": "uint256",
          "name": "",
          "type": "uint256"
        }
      ],
      "stateMutability": "view",
      "type": "function"
    },
    {
      "inputs": [],
      "name": "winnerChosen",
      "outputs": [
        {
          "internalType": "bool",
          "name": "",
          "type": "bool"
        }
      ],
      "stateMutability": "view",
      "type": "function"
    },
    {
      "inputs": [],
      "name": "winningsPerBet",
      "outputs": [
        {
          "internalType": "uint256",
          "name": "",
          "type": "uint256"
        }
      ],
      "stateMutability": "view",
      "type": "function"
    },
    {
      "inputs": [],
      "name": "withdraw",
      "outputs": [],
      "stateMutability": "nonpayable",
      "type": "function"
    }
  ],
  "bytecode": "0x608060405234801561001057600080fd5b5061002d61002261003260201b60201c565b61003a60201b60201c565b6100fe565b600033905090565b60008060009054906101000a900473ffffffffffffffffffffffffffffffffffffffff169050816000806101000a81548173ffffffffffffffffffffffffffffffffffffffff021916908373ffffffffffffffffffffffffffffffffffffffff1602179055508173ffffffffffffffffffffffffffffffffffffffff168173ffffffffffffffffffffffffffffffffffffffff167f8be0079c531659141344cd1fd0a4f28419497f9722a3daafe3b4186f6b6457e060405160405180910390a35050565b61149f8061010d6000396000f3fe6080604052600436106101095760003560e01c8063b181a8fc11610095578063f07f323c11610064578063f07f323c146102ec578063f2fde38b14610329578063fad42a2c14610352578063fee490531461037d578063ff72379c146103a857610109565b8063b181a8fc14610268578063b401faf11461027f578063de8f8e6a14610296578063dfbf53ae146102c157610109565b80634c524be4116100dc5780634c524be4146101a45780636ffcc719146101cd578063715018a6146101e95780638068aa68146102005780638da5cb5b1461023d57610109565b8063026b96961461010e578063051624631461014b578063357b08df146101765780633ccfd60b1461018d575b600080fd5b34801561011a57600080fd5b5061013560048036038101906101309190610c61565b6103d3565b6040516101429190610c9d565b60405180910390f35b34801561015757600080fd5b506101606103eb565b60405161016d9190610cd3565b60405180910390f35b34801561018257600080fd5b5061018b6103fe565b005b34801561019957600080fd5b506101a2610432565b005b3480156101b057600080fd5b506101cb60048036038101906101c69190610c61565b6104d9565b005b6101e760048036038101906101e29190610cee565b6105d3565b005b3480156101f557600080fd5b506101fe6106e8565b005b34801561020c57600080fd5b5061022760048036038101906102229190610d8c565b6106fc565b6040516102349190610c9d565b60405180910390f35b34801561024957600080fd5b50610252610721565b60405161025f9190610ddb565b60405180910390f35b34801561027457600080fd5b5061027d61074a565b005b34801561028b57600080fd5b506102946107d7565b005b3480156102a257600080fd5b506102ab610a09565b6040516102b89190610cd3565b60405180910390f35b3480156102cd57600080fd5b506102d6610a1c565b6040516102e39190610c9d565b60405180910390f35b3480156102f857600080fd5b50610313600480360381019061030e9190610df6565b610a22565b6040516103209190610cd3565b60405180910390f35b34801561033557600080fd5b50610350600480360381019061034b9190610df6565b610a42565b005b34801561035e57600080fd5b50610367610ac5565b6040516103749190610c9d565b60405180910390f35b34801561038957600080fd5b50610392610acb565b60405161039f9190610c9d565b60405180910390f35b3480156103b457600080fd5b506103bd610ad0565b6040516103ca9190610c9d565b60405180910390f35b60046020528060005260406000206000915090505481565b600660009054906101000a900460ff1681565b610406610adc565b600660009054906101000a900460ff1615600660006101000a81548160ff021916908315150217905550565b61043a610adc565b60011515600660019054906101000a900460ff16151514610490576040517f08c379a000000000000000000000000000000000000000000000000000000000815260040161048790610ea6565b60405180910390fd5b3373ffffffffffffffffffffffffffffffffffffffff166108fc479081150290604051600060405180830381858888f193505050501580156104d6573d6000803e3d6000fd5b50565b6104e1610adc565b600481111580156104f25750600081115b610531576040517f08c379a000000000000000000000000000000000000000000000000000000000815260040161052890610f12565b60405180910390fd5b60001515600660009054906101000a900460ff16151514610587576040517f08c379a000000000000000000000000000000000000000000000000000000000815260040161057e90610fa4565b60405180910390fd5b6001600660016101000a81548160ff0219169083151502179055508060028190555060046000600254815260200190815260200160002054476105ca9190611022565b60018190555050565b600660009054906101000a900460ff16610622576040517f08c379a00000000000000000000000000000000000000000000000000000000081526004016106199061109f565b60405180910390fd5b60048210610665576040517f08c379a000000000000000000000000000000000000000000000000000000000815260040161065c9061110b565b60405180910390fd5b80600360003373ffffffffffffffffffffffffffffffffffffffff1673ffffffffffffffffffffffffffffffffffffffff1681526020019081526020016000206000848152602001908152602001600020600082825401925050819055508060046000848152602001908152602001600020600082825401925050819055505050565b6106f0610adc565b6106fa6000610b5a565b565b6003602052816000526040600020602052806000526040600020600091509150505481565b60008060009054906101000a900473ffffffffffffffffffffffffffffffffffffffff16905090565b610752610adc565b6000600190505b600481101561078e576000600460008381526020019081526020016000208190555080806107869061112b565b915050610759565b506000600660016101000a81548160ff0219169083151502179055506000600660006101000a81548160ff02191690831515021790555060006001819055506000600281905550565b6000600154600360003373ffffffffffffffffffffffffffffffffffffffff1673ffffffffffffffffffffffffffffffffffffffff16815260200190815260200160002060006002548152602001908152602001600020546108399190611173565b905060011515600660019054906101000a900460ff16151514610891576040517f08c379a000000000000000000000000000000000000000000000000000000000815260040161088890611227565b60405180910390fd5b600081116108d4576040517f08c379a00000000000000000000000000000000000000000000000000000000081526004016108cb906112b9565b60405180910390fd5b60001515600560003373ffffffffffffffffffffffffffffffffffffffff1673ffffffffffffffffffffffffffffffffffffffff16815260200190815260200160002060009054906101000a900460ff16151514610967576040517f08c379a000000000000000000000000000000000000000000000000000000000815260040161095e9061134b565b60405180910390fd5b6001600560003373ffffffffffffffffffffffffffffffffffffffff1673ffffffffffffffffffffffffffffffffffffffff16815260200190815260200160002060006101000a81548160ff0219169083151502179055503373ffffffffffffffffffffffffffffffffffffffff166108fc829081150290604051600060405180830381858888f19350505050158015610a05573d6000803e3d6000fd5b5050565b600660019054906101000a900460ff1681565b60025481565b60056020528060005260406000206000915054906101000a900460ff1681565b610a4a610adc565b600073ffffffffffffffffffffffffffffffffffffffff168173ffffffffffffffffffffffffffffffffffffffff1603610ab9576040517f08c379a0000000000000000000000000000000000000000000000000000000008152600401610ab0906113dd565b60405180910390fd5b610ac281610b5a565b50565b60015481565b600481565b674563918244f4000081565b610ae4610c1e565b73ffffffffffffffffffffffffffffffffffffffff16610b02610721565b73ffffffffffffffffffffffffffffffffffffffff1614610b58576040517f08c379a0000000000000000000000000000000000000000000000000000000008152600401610b4f90611449565b60405180910390fd5b565b60008060009054906101000a900473ffffffffffffffffffffffffffffffffffffffff169050816000806101000a81548173ffffffffffffffffffffffffffffffffffffffff021916908373ffffffffffffffffffffffffffffffffffffffff1602179055508173ffffffffffffffffffffffffffffffffffffffff168173ffffffffffffffffffffffffffffffffffffffff167f8be0079c531659141344cd1fd0a4f28419497f9722a3daafe3b4186f6b6457e060405160405180910390a35050565b600033905090565b600080fd5b6000819050919050565b610c3e81610c2b565b8114610c4957600080fd5b50565b600081359050610c5b81610c35565b92915050565b600060208284031215610c7757610c76610c26565b5b6000610c8584828501610c4c565b91505092915050565b610c9781610c2b565b82525050565b6000602082019050610cb26000830184610c8e565b92915050565b60008115159050919050565b610ccd81610cb8565b82525050565b6000602082019050610ce86000830184610cc4565b92915050565b60008060408385031215610d0557610d04610c26565b5b6000610d1385828601610c4c565b9250506020610d2485828601610c4c565b9150509250929050565b600073ffffffffffffffffffffffffffffffffffffffff82169050919050565b6000610d5982610d2e565b9050919050565b610d6981610d4e565b8114610d7457600080fd5b50565b600081359050610d8681610d60565b92915050565b60008060408385031215610da357610da2610c26565b5b6000610db185828601610d77565b9250506020610dc285828601610c4c565b9150509250929050565b610dd581610d4e565b82525050565b6000602082019050610df06000830184610dcc565b92915050565b600060208284031215610e0c57610e0b610c26565b5b6000610e1a84828501610d77565b91505092915050565b600082825260208201905092915050565b7f43616e6e6f7420776974686472617720756e74696c206166746572206120776960008201527f6e6e657220686173206265656e2063686f73656e000000000000000000000000602082015250565b6000610e90603483610e23565b9150610e9b82610e34565b604082019050919050565b60006020820190508181036000830152610ebf81610e83565b9050919050565b7f4d757374207069636b20612076616c69642077696e6e65720000000000000000600082015250565b6000610efc601883610e23565b9150610f0782610ec6565b602082019050919050565b60006020820190508181036000830152610f2b81610eef565b9050919050565b7f43616e6e6f742063686f6f736520612077696e6e657220756e74696c2061667460008201527f65722062657474696e6720697320636c6f736564000000000000000000000000602082015250565b6000610f8e603483610e23565b9150610f9982610f32565b604082019050919050565b60006020820190508181036000830152610fbd81610f81565b9050919050565b7f4e487b7100000000000000000000000000000000000000000000000000000000600052601260045260246000fd5b7f4e487b7100000000000000000000000000000000000000000000000000000000600052601160045260246000fd5b600061102d82610c2b565b915061103883610c2b565b92508261104857611047610fc4565b5b828204905092915050565b7f4e6f206d6f726520626574730000000000000000000000000000000000000000600082015250565b6000611089600c83610e23565b915061109482611053565b602082019050919050565b600060208201905081810360008301526110b88161107c565b9050919050565b7f596f75206d75737420626574206f6e20612076616c696420706c617965720000600082015250565b60006110f5601e83610e23565b9150611100826110bf565b602082019050919050565b60006020820190508181036000830152611124816110e8565b9050919050565b600061113682610c2b565b91507fffffffffffffffffffffffffffffffffffffffffffffffffffffffffffffffff820361116857611167610ff3565b5b600182019050919050565b600061117e82610c2b565b915061118983610c2b565b925082820261119781610c2b565b915082820484148315176111ae576111ad610ff3565b5b5092915050565b7f596f752063616e6e6f7420636c61696d20796f75722072657761726420756e7460008201527f696c20612077696e6e657220686173206265656e2063686f73656e0000000000602082015250565b6000611211603b83610e23565b915061121c826111b5565b604082019050919050565b6000602082019050818103600083015261124081611204565b9050919050565b7f596f7520646f206e6f74206861766520616e792077696e6e696e677320746f2060008201527f636c61696d000000000000000000000000000000000000000000000000000000602082015250565b60006112a3602583610e23565b91506112ae82611247565b604082019050919050565b600060208201905081810360008301526112d281611296565b9050919050565b7f596f75206861766520616c726561647920636c61696d656420796f757220776960008201527f6e6e696e67730000000000000000000000000000000000000000000000000000602082015250565b6000611335602683610e23565b9150611340826112d9565b604082019050919050565b6000602082019050818103600083015261136481611328565b9050919050565b7f4f776e61626c653a206e6577206f776e657220697320746865207a65726f206160008201527f6464726573730000000000000000000000000000000000000000000000000000602082015250565b60006113c7602683610e23565b91506113d28261136b565b604082019050919050565b600060208201905081810360008301526113f6816113ba565b9050919050565b7f4f776e61626c653a2063616c6c6572206973206e6f7420746865206f776e6572600082015250565b6000611433602083610e23565b915061143e826113fd565b602082019050919050565b6000602082019050818103600083015261146281611426565b905091905056fea2646970667358221220eccef9563b596a290d02b707c1f2d9a7a54a8110a58a255f1954f6c8ea20676c64736f6c63430008130033",
  "linkReferences": {},
  "deployedLinkReferences": {}
}